:04000000A7EF00F076
:08000800046ED8CF05F0E0CF33
:1000100006F00001E9CF0CF0EACF07F0E1CF08F0DD
:10002000E2CF09F0D9CF0AF0DACF0BF0F3CF12F01C
:10003000F4CF13F0FACF14F0F5CF15F0F6CF16F099
:10004000F7CF17F000C00EF001C00FF002C010F0A3
:1000500003C011F0F2AA30EF00F0F2B496EF00F016
:100060000EC000F00FC001F010C002F011C003F08C
:100070000CC0E9FF07C0EAFF078E08C0E1FF09C016
:10008000E2FF0AC0D9FF0BC0DAFF12C0F3FF13C0B2
:10009000F4FF14C0FAFF15C0F5FF16C0F6FF17C035
:1000A000F7FF045006C0E0FF05C0D8FF1000500E57
:1000B0006E6F6E5316E0010E6E5D036A190FE96EE6
:1000C000000E0320EA6EEF50691503E092928982D8
:1000D00002D09292899292948984929489946E0724
:1000E000E8D769C06FF06F1F6E6B6E5107080FE3A2
:1000F0006FAF03D09292898202D0929289929294A9
:10010000898492948994D8906F376E2BEED792960B
:1001100089869296899669517F0804E2010E696F7B
:100120006A8302D0D89069379AEF00F0D76A400E00
:10013000D66EBDD7F29430EF00F0010E696F6A936E
:10014000ECEF00F06AB301D000D002EF01F0F86AE2
:10015000D09E078EFE0E006E080E016E020EE96E36
:10016000000EEA6EEE6A002EFDD7012EFBD7EA6A7A
:10017000E96AB8960C0EAF6EA20EAC6E900EAB6E26
:10018000C150C00B0F09C16E070EB46EF19EC15075
:10019000C00B0F09C16EC2909698C69A010EC66E2A
:1001A000000EC76ED190C60ED56ECD6A000ECA6E17
:1001B000000ECB6EB16A070EB46E9250926E270E8F
:1001C000006E002EFED700D0B450A19CB56A000E80
:1001D000926E936E946EB1D76B6B6B514F080BE3BD
:1001E000036A6B51190FE96E000E0320EA6E6BC0B3
:1001F000EFFF6B2BF2D7F28AC00EF2126A816AA16E
:0802000002D0A0D7FCD70300D7
:020000040030CA
:0E00000024CE380E0087A1000FC00FE00F4085
:00000001FF
;PIC18F4550
;CRC=82FD  CREATED="14-may-10 12:45"
