:04000000CCEF03F04E
:08000800046ED8CF05F0E0CF33
:1000100006F00001E9CF0CF0EACF07F0E1CF08F0DD
:10002000E2CF09F0D9CF0AF0DACF0BF0F3CF12F01C
:10003000F4CF13F0FACF14F0F5CF15F0F6CF16F099
:10004000F7CF17F000C00EF001C00FF002C010F0A3
:1000500003C011F0F2AA30EF00F0F2B42CEF03F07D
:100060000EC000F00FC001F010C002F011C003F08C
:100070000CC0E9FF07C0EAFF078E08C0E1FF09C016
:10008000E2FF0AC0D9FF0BC0DAFF12C0F3FF13C0B2
:10009000F4FF14C0FAFF15C0F5FF16C0F6FF17C035
:1000A000F7FF045006C0E0FF05C0D8FF1000F76A54
:1000B000BE0FF66E000EF7220900F5501200000088
:1000C000CE0FF66E000EF7220900F5501200000068
:1000D0000000000000000000000000000000000020
:1000E0000000000000000000000000000000000010
:1000F0000000000000000000000000000000000000
:1001000000000000000000000000000000000000EF
:100110000200030006000C00110018001D001E0064
:100120002100240029002E003000340038003F0058
:10013000440047004B004F00530057005B00600035
:10014000650069006A006C006F007200750079003C
:100150007F00840089008E00930098009D00A2001B
:10016000A700A800AD00B200B600BB00C000C500EB
:10017000CA00CF00D400D900DE00E300E800ED00A3
:10018000F200F700FC00FF00060109010E01130157
:10019000150119011D012101250129012D0131013F
:1001A0003501360139013D01410146014A014E0147
:1001B000520156015A015E01630167016C01710130
:1001C00076017A017F01830186018A019001950100
:1001D00099019D01A201A601AA01AE01B201B601D9
:1001E000BA01BE01C201C501C801CA01CE01D301D5
:1001F000D701DC01E201E601EA01EE01F201F601BC
:10020000FA01FE01020206020A020F02140219029A
:100210001D021F02230227022B0230023402380281
:100220003C02410245024B025102520258025E0258
:1002300063026902700277027B02800284028902F3
:100240008F02930299029D02A202A702AB02AF02A3
:10025000B402B802BC02C002C402C802CD02D1027C
:10026000D502D702DB02DE02E102E602EA02EE027A
:10027000F202F602FA02FE02020306030A038C0FE0
:10028000F66E020EF7220900F550120000005F071B
:100290000007147C177C171446497F493242251207
:1002A000082452213A454A3048031C224141221C6D
:1002B000081C3E1C0810107C10104020080808087C
:1002C00000400000402010080402013E5149453E14
:1002D00004027F4661514E414949360708087F476D
:1002E0004949313E4949310101097F0836494949A7
:1002F000362649493E2840281028442828284428E2
:1003000010020159063E415D5D45387E0909097EAE
:100310007F494949363E414141417F4141413E3E4D
:10032000494949497E090909093E414949397F0836
:1003300008087F7F304040403F7F081422417F40C3
:1003400040407E010E017E7E013E403E3E414141E5
:100350003E7F090909063E4151617E7F0919294600
:10036000464949493101017F01013F4040403F1F5B
:100370002040201F3F4038403F7708080877070893
:1003800078080721514945423E41410102040810C5
:10039000204041413E0402010204404040404001EF
:1003A00002645454787F48483038444444304848C4
:1003B0007F385454587E0801024C52523C7E080843
:1003C000707A20403A7C1028443E4040407804181F
:1003D000047878040478384444387C141408384489
:1003E0006478047804044854542408083E48483C7F
:1003F00040403C1C2040201C3C403C403C442810D9
:1004000028444C50503C4464544C4408364141000C
:100410007F00414136080804040808047C42414238
:100420007C1E2161213A40403A3C5252524D2455A3
:10043000557C2554547D0100010052754A784724AB
:100440001E105C350A581C151A581C150A58013F15
:1004500000415E00017A3E4452787D295452701466
:10046000555A5058721F34403E22614E26405C312E
:1004700008381C1118381C1108385E3048381E1016
:10048000483826145A381E5058381E1058381C192F
:100490000A386B3E2A405F34597430220A022240E7
:1004A000205217080012555A787D001C1128381E5A
:1004B0005058387D4110787942264C30444503101D
:1004C0004342010058130820472412710009151EE9
:1004D00010081422081422610B026008727D044582
:1004E0000420082011052122200036205D6E6022A4
:1004F0001408221408422F10083C2279422F1008B9
:100500004C6A51304D403068442470707D12127D29
:100510007A2525257A7C0A097E49497C5456557DE1
:10052000050911217D3D42423D44281028443E5199
:1005300049453E3D40403D2556547C245454567D0B
:100540002455557C2455557C2457577C0E11711128
:1005500039565458385454564938555558395454C6
:1005600059017A00780201027902017C01700A0ABD
:100570000A70394644383844463938444438394496
:100580004439386454383D42403C3C40423D3C4153
:10059000413C3A40403A4D50503DF76AAA0FF66E42
:1005A000050EF7220900F550120020484F4C41205B
:1005B000464F524F20544F444F5049432121210070
:1005C000195203E14F0E7E6F03D0010E195C7E6F4E
:1005D0007D6B7D514F081BE3036A7E511A0FE96E54
:1005E000000E0320EA6EEF506A1503E092928982B2
:1005F00002D09292899292948984929489947E51A5
:100600007E07000A02E14F0E7E6F7D2BE2D76AC0A3
:100610007FF07F1F7D6B7D5107080FE37FAF03D015
:100620009292898202D09292899292948984929431
:100630008994D8907F377D2BEED7929689869296B3
:1006400089966A517F0804E2010E6A6F728302D0B4
:10065000D8906A3730EF03F0D76A400ED66EB0D725
:10066000F29430EF00F0010E6A6F7293060E766F0F
:1006700011EF04F06F516D5D07E303E16E516C5DA6
:1006800003E3000E016E13D06DC003F06C516C2BB0
:10069000D8B46D2B7B6F03C07CF003C003F07B519B
:1006A00003C0F7FFECDD716B706F010E016E8BEF15
:1006B00003F0D8906B35036AFADC0900F5CF03F03C
:1006C0006E6F03C06FF07C516E27000E6F23D890C1
:1006D0006E35026E6F35036E025003C0F7FFF0DC1B
:1006E0000900F5CF03F06C6F03C06DF06E2BD8B42A
:1006F0006F2BD8906E35026E6F35036E025003C0BB
:10070000F7FFDEDC0900F5CF03F06E6F03C06FF07A
:10071000B5EF03F0AFD7015216E0192A19504F0870
:10072000D8A0196A195204E0010E195C796F01D042
:10073000796B036A79511A0FE96E000E0320EA6E95
:1007400070C0EFFF12D0732BD8B4742B74C003F0B9
:10075000735123DF000A02E1746B736B74C003F002
:1007600073511BDF7B6F7C6FA4D7CAEF03F072B3AA
:1007700002D010D001D0729377517707000A03E1BD
:1007800076C077F001D006D0785101E002D0C2D710
:1007900001D000D018EF04F0F86AD09E078EFE0E4C
:1007A000006E080E016E020EE96E000EEA6EEE6A31
:1007B000002EFDD7012EFBD7EA6AE96AB8960C0E27
:1007C000AF6EA20EAC6E900EAB6EC150C00B0F0997
:1007D000C16E070EB46EF19EC150C00B0F09C16E01
:1007E000C2909698C69A010EC66E000EC76ED19042
:1007F000C60ED56ECD6A000ECA6E000ECB6EB16A03
:10080000070EB46E9250926E270E006E002EFED729
:1008100000D0B450A19CB56A000E926E936E946E97
:1008200022D7F28AC00EF212728172A102D09FD733
:04083000FCD70300EE
:020000040030CA
:0E00000024CE380E0087A1000FC00FE00F4085
:00000001FF
;PIC18F4550
;CRC=5729  CREATED="01-jun-10 21:30"
